:020000040800F2
:1000000028070020952000089D1000089F10000878
:10001000A1100008A3100008A510000800000000AF
:10002000000000000000000000000000A710000811
:10003000A910000800000000AB100008AD10000877
:10004000C5200008C9200008CD200008D1200008E4
:10005000D5200008D9200008DD200008E120000894
:10006000E5200008E9200008ED200008F120000844
:10007000F5200008F9200008FD20000801210008F3
:10008000B5100008BF10000805210008092100086C
:100090000D21000811210008152100081921000870
:1000A0001D21000821210008252100082921000820
:1000B0002D210008312100083521000839210008D0
:1000C0003D21000841210008452100084921000880
:1000D0004D21000851210008BF11000855210008DA
:1000E000592100085D2100086121000865210008F0
:1000F000692100086D2100087121000875210008A0
:10010000792100087D21000881210008852100084F
:10011000892100088D2100089121000895210008FF
:10012000992100089D210008A1210008A5210008AF
:1001300010B50400002C01D1012033E0A069002893
:10014000FFD194F83900002805D1002084F8380048
:10015000200000F08EFB242084F839002068C0685D
:1001600030F400502168C860200000F0A5FA206833
:10017000006930F49040216808612068406930F0DF
:100180002A00216848612068C06850F40050216846
:10019000C8600020E063202084F83900202084F823
:1001A0003A00002010BD73B50400150094F8390022
:1001B000202841D10198002803D0280080B20028CF
:1001C00001D1012039E094F83800012801D1022042
:1001D00033E0012084F8380001982062A584E5848A
:1001E0000020E063212084F839000FF25120216BB8
:1001F00088620FF27D20216BC8620FF2D920216B3B
:1002000008630020216B486301AE2B009BB220687D
:10021000021D3168206B00F0F6FB7FF04000216882
:100220000860002084F838002068406950F08000A1
:1002300021684861002000E0022076BD73B504000B
:10024000150094F83A00202851D10198002803D0D5
:10025000280080B2002801D1012049E094F838003C
:10026000012801D1022043E0012084F838000198E0
:10027000A062A5850020E063222084F83A000FF2F6
:100280000120616B88620FF23D20616BC8620FF242
:100290004520616B08630020616B486301AE2B0051
:1002A0009BB232682068011D606B00F0ACFB00203F
:1002B00000902068006800902068406800900098D6
:1002C000002084F838002068C06850F480702168ED
:1002D000C8602068406950F00100216848612068CA
:1002E000406950F0400021684861002000E0022091
:1002F00076BD2DE9F8430600306807683068D0F80D
:100300000C803068D0F814900020002517F00F04FE
:10031000002C08D1B80606D55FEA886003D5300006
:1003200000F073F988E0002C74D05FEAC97002D441
:1003300018F4907F6ED017F00100C0B2002806D0EC
:100340005FEAC85003D5F06B50F00100F063780706
:1003500008D519F00100C0B2002803D0F06B50F0AE
:100360000200F063B80708D519F00100C0B20028F8
:1003700003D0F06B50F00400F063380708D519F093
:100380000100C0B2002803D0F06B50F00800F06309
:10039000F06B00283DD0B80605D55FEA886002D52D
:1003A000300000F032F930684069800910F0010037
:1003B0000500F06B000701D4002D25D0300000F0BF
:1003C000BFF83068406940061AD53068406930F09F
:1003D000400031684861706B00280DD00FF2851025
:1003E000716B4863706B00F05AFB002811D0706B82
:1003F000716B496B88470CE0300000F02FFE08E07D
:10040000300000F02BFE04E0300000F027FE00205A
:10041000F06311E0380606D55FEA086003D53000C6
:1004200000F0ACF808E0780606D55FEA486003D52E
:10043000300000F0DAF8FFE7BDE8F18338B50400DA
:10044000656A2068006880060ED40020E884286869
:10045000406930F08000296848612868C06850F021
:1004600040002968C86002E0280000F0F8FD31BDB6
:1004700038B50400656A280000F0F2FD31BD0000C7
:1004800038B50400656A20680068800616D400202C
:10049000E8852868C06830F480702968C8602868DA
:1004A000406940084000296848612868406930F088
:1004B000400029684861202085F83A00280000F0B3
:1004C000ABFE31BD38B50400656A280000F0A9FE16
:1004D00031BD0000F8B506000020776A39684C6924
:1004E000E40914F0010497F83910212906D1002CF1
:1004F00004D00020F884380000F018F83868456906
:10050000AD0915F0010597F83A00222806D1002D13
:1005100004D00020F885380000F012F8F86B50F095
:100520001000F863380000F099FDF1BD0168C9685A
:1005300031F0C0010268D160202180F83910704785
:100540000168C96831F490710268D1600168496935
:100550004908490002685161202180F83A1070472B
:100560000000000038B50400656A0020E88500201E
:10057000E884280000F072FD31BD0000010091F810
:10058000390021282FD18868B0F5805F11D1086A21
:1005900002001088C005C00D0B685860086900286B
:1005A00003D1086A801C086209E0086A401C0862DE
:1005B00005E0086A431C0B6200780B685860C88C21
:1005C000401EC88480B200280BD10868C06830F093
:1005D00080000B68D8600868C06850F040000B6865
:1005E000D860002000E00220704710B504002068A9
:1005F000C06830F040002168C860202084F83900CD
:10060000200000F02CFD002010BD38B5040094F847
:100610003A0022284ED1A068B0F5805F16D1A06ABA
:1006200005002069002808D120684068C005C00D79
:100630002880A06A801CA0621AE02068406800F050
:10064000FF002880A06A401CA06211E020690028F9
:1006500006D1A06A411CA16221684968017007E0C7
:10066000A06A411CA1622168496811F07F010170F4
:10067000E08D401EE08580B2002819D12068C06856
:1006800030F020002168C8602068C06830F48070B5
:100690002168C860206840694008400021684861BE
:1006A000202084F83A00200000F0B6FD002002E08F
:1006B000002000E0022032BD2DE9F84305000024AF
:1006C0002868016931F44051E868014328680161F4
:1006D000A96828690143686901430C432868C16817
:1006E0005648014021432868C1602868416931F4B7
:1006F0004071A869014328684161286850498842CF
:100700004DD101F081F8060001F07EF8070001F0FC
:100710007BF8804601F078F8814601F075F8642195
:10072000192256436B689B00B6FBF3F36426B3FBB8
:10073000F6F357436E68B600B7FBF6F602FB08F80F
:100740006F68BF00B8FBF7F75FF0640CB7FBFCF70E
:1007500001FB1766360132366427B6FBF7F616F052
:10076000F00616EB031602FB09F96B689B00B9FB58
:10077000F3F302FB00F268688000B2FBF0F0642241
:10078000B0FBF2F001FB1031080132306421B0FB04
:10079000F1F010F00F008619286886604CE001F037
:1007A00028F8060001F025F8070001F022F880463D
:1007B00001F01FF8814601F01CF86421192256430C
:1007C0006B689B00B6FBF3F36426B3FBF6F3574369
:1007D0006E68B600B7FBF6F602FB08F86F68BF005C
:1007E000B8FBF7F75FF0640CB7FBFCF701FB17668B
:1007F000360132366427B6FBF7F616F0F00616EB34
:10080000031602FB09F96B689B00B9FBF3F302FBCB
:1008100000F268688000B2FBF0F06422B0FBF2F0F6
:1008200001FB1031080132306421B0FBF1F010F00F
:100830000F00861928688660BDE8F183F3E9FFFFA1
:100840000038014081B04448016851F00101016065
:10085000006810F00100009000984048016851F0D5
:1008600080510160006810F080500090009801B045
:10087000704730B585B004006846102101F004F8D7
:1008800020683749884264D13448016851F4003106
:100890000160006810F40030049004982E4801684C
:1008A00051F004010160006810F004000490049805
:1008B000042000900220019003200390294D6946F6
:1008C000280000F0E5FF08200090002001900020A3
:1008D00002906946280000F0DBFF234D2348286082
:1008E000002068600020A8608020E8600020286167
:1008F000002068612020A8610020E861280000F045
:100900003BF8002801D001F0B5F965636C62184D21
:1009100018482860102068600020A8608020E860E7
:1009200000202861002068610020A8610020E861A3
:10093000280000F021F8002801D001F09BF9256380
:100940006C6200220021262001F009FA262001F025
:100950001BFA05B030BD0000181002401C10024008
:1009600000440040000801400C0200206C000240DE
:10097000500200208000024010B401000022002933
:1009800001D101203DE00868DFF8D03298420CD256
:100990000B68DFF8CC02C3181420B3FBF0F0800022
:1009A0000864DFF8C002C8630BE00B68DFF8B80228
:1009B000C3181420B3FBF0F080000864DFF8AC0229
:1009C000C863022081F82100086803686FF30D13E3
:1009D0004C6888680443C86804430869044348694C
:1009E000044388690443C8690443234308680360D7
:1009F00000208863012081F82100002081F8200078
:100A0000002010BC70472DE9F04104000D001600D5
:100A10001F005FF0000894F82000012801D1022097
:100A20003BE0012084F8200094F8210001282DD11A
:100A3000022084F821000020A0632068006840089C
:100A40004000216808603B0032002900200000F0CF
:100A5000EFFAE06A002806D02068006850F00E0027
:100A6000216808600BE02068006830F0040021680D
:100A700008602068006850F00A002168086020685B
:100A8000006850F001002168086004E0002084F84C
:100A90002000022080464046C0B2BDE8F08138B553
:100AA0000400002594F82100022804D00420A0634B
:100AB00001200500CFE02068006830F00E002168BA
:100AC00008602068006840084000216808602068CD
:100AD000DFF89C11884259D32068DFF898118842CA
:100AE00001D101204EE02068DFF88C11884201D14D
:100AF000102047E02068DFF88411884202D14FF4CB
:100B000080703FE02068DFF87811884202D14FF40E
:100B1000805037E02068DFF86C11884202D15FF422
:100B200080302FE02068DFF86011884202D15FF446
:100B3000801027E02068DFF85411884202D15FF06E
:100B400080701FE02068DFF81411884201D1012075
:100B500018E02068DFF83811884201D1102011E038
:100B60002068DFF83011884202D14FF4807009E02C
:100B70002068DFF82411884202D14FF4805001E050
:100B80005FF48030DFF81411086058E02068DFF867
:100B9000E410884201D101204EE02068DFF8D8102F
:100BA000884201D1102047E02068DFF8D010884249
:100BB00002D14FF480703FE02068DFF8C410884213
:100BC00002D14FF4805037E02068DFF8B810884237
:100BD00002D15FF480302FE02068DFF8AC1088424B
:100BE00002D15FF4801027E02068DFF8A01088426F
:100BF00002D15FF080701FE02068DFF8601088424B
:100C000001D1012018E02068DFF88410884201D16A
:100C1000102011E02068DFF87C10884202D14FF4E8
:100C2000807009E02068DFF87010884202D14FF42C
:100C3000805001E05FF48030DFF8BC1308600120D1
:100C400084F82100002084F82000606B002802D086
:100C50002000616B88472800C0B232BD0804024002
:100C6000F8FFFDBF00000240F8FBFDBF000402409A
:100C700081000240080002401C0002403000024097
:100C800044000240580002406C00024080000240D4
:100C90001C040240300402404404024004040240A8
:100CA00070B50400E06B0568206806680421206CBC
:100CB00081400D4200F0C080700740F1BD80206887
:100CC0000068800605D42068006830F004002168C0
:100CD00008602068DFF82413884258D32068DFF8C2
:100CE0002013884201D104204EE02068DFF814135D
:100CF000884201D1402047E02068DFF80C13884289
:100D000002D14FF480603FE02068DFF80013884292
:100D100002D14FF4804037E02068DFF8F4128842B7
:100D200002D15FF480202FE02068DFF8E8128842CB
:100D300002D15FF4800027E02068DFF8DC128842EF
:100D400002D15FF080601FE02068DFF8D012884297
:100D500001D1042018E02068DFF8C412884201D1D4
:100D6000402011E02068DFF8BC12884202D14FF425
:100D7000806009E02068DFF8B012884202D14FF4A9
:100D8000804001E05FF48020A84908604CE02068C2
:100D90009B49884201D1042044E020689949884257
:100DA00001D140203EE020689749884202D14FF4AB
:100DB000806037E020689549884202D14FF4804036
:100DC00030E020689249884202D15FF4802029E017
:100DD00020689049884202D15FF4800022E02068B8
:100DE0008D49884202D15FF080601BE020688B490A
:100DF000884201D1042015E020688949884201D148
:100E000040200FE020688749884202D14FF480607B
:100E100008E020688449884202D14FF4804001E014
:100E20005FF4802074490860E06A002800F0E380E5
:100E30002000E16A8847DEE00221206C81400D42FB
:100E400000F0B980B00740F1B680206800688006E5
:100E500008D42068006830F00A002168086001208A
:100E600084F821002068654988424DD32068644990
:100E7000884201D1022044E020686249884201D1C1
:100E800020203EE020686049884202D14FF4007083
:100E900037E020685D49884202D14FF4005030E0CD
:100EA00020685B49884202D15FF4003029E0206865
:100EB0005849884202D15FF4001022E02068564968
:100EC000884202D15FF000701BE0206853498842DD
:100ED00001D1022015E020685149884201D120202B
:100EE0000FE020684F49884202D14FF4007008E0BB
:100EF00020684D49884202D14FF4005001E05FF470
:100F000000304A4908604CE020683D49884201D1E0
:100F1000022044E020683B49884201D120203EE085
:100F200020683949884202D14FF4007037E02068C8
:100F30003649884202D14FF4005030E020683449ED
:100F4000884202D15FF4003029E0206831498842AC
:100F500002D15FF4001022E020682F49884202D1BC
:100F60005FF000701BE020682C49884201D102200C
:100F700015E020682A49884201D120200FE020682E
:100F80002849884202D14FF4007008E020682649C1
:100F9000884202D14FF4005001E05FF4003016495E
:100FA0000860002084F82000A06A002823D02000D8
:100FB000A16A88471FE00821206C81400D421AD0A9
:100FC000300718D52068006830F00E0021680860EE
:100FD0000121206C8140E06B41600120A063012071
:100FE00084F82100002084F82000206B002802D023
:100FF0002000216B884770BD040002408100024040
:10100000080002401C000240300002404400024040
:10101000580002406C000240800002400804024078
:101020001C04024030040240440402400404024014
:1010300030B40125046CA540C46B6560046863602E
:101040004468102C04D10468A2600468E16003E0E5
:101050000468A1600468E26030BC70477047704764
:10106000704730B4002513E050F8042BD30744BF79
:10107000A9F101039A18091F042942F8045BFAD266
:1010800013468C0744BF15809B1CC90748BF1D70C1
:1010900050F8041B0029E7D130BC70477047FEE7C9
:1010A000FEE7FEE7FEE770477047704780B500F047
:1010B00089FE01BD80B54D48FFF7F2FD01BD80B549
:1010C0004B48FFF7EDFD01BD2DE9F84F05000E007F
:1010D00017003800C0B200280FD046480178012917
:1010E0000BD145490A68454B1A800122444B1A70BE
:1010F00000220A60002101702EE0B246AB46414C4E
:10110000DFF8F480D8F8000004EB00095246594695
:10111000484600F063FED8F800003018C8F8000018
:10112000DFF8D09099F80000012815D1D8F800A078
:10113000DFF8D4B052462100584600F04FFED8F8F0
:1011400000002E49088001202D4908700020C8F8B1
:101150000000002089F80000BDE8F18F70B5234839
:1011600000684468D4F14004284D286884421AD0AD
:101170002868A04208D200222968611A24482B68F6
:101180001844FFF7A1FF13E0214E00222968D1F196
:10119000400128683044FFF797FF0022210030000B
:1011A000FFF792FF04E0012229681948FFF78CFF3E
:1011B0002C602868402801D10020286070BD38B517
:1011C000144C20680068C0060CD5206800680090A8
:1011D000206840680090074D01202870FFF7BEFF8F
:1011E000002028702000FFF784F831BD0C02002099
:1011F00050020020230300201803002020030020B9
:10120000220300200C0100200C0000201C03002001
:10121000D40200209402002010B50400FFF79EFFC6
:1012200010BD10B50400FFF799FF10BD2DE9F8437C
:10123000040000252078C0076BD5DFF80C06016894
:1012400011F00C01042907D0016811F00C010829E4
:101250000CD10068C00309D5DFF8E80500688003F9
:1012600057D56068002854D10120BDE16068B0F511
:10127000803F06D1DFF8CC05016851F48031016070
:1012800026E0606800280AD1DFF8B805016831F46B
:1012900080310160016831F48021016018E06068EC
:1012A000B0F5A02F0AD1DFF89C05016851F4802128
:1012B0000160016851F48031016009E0DFF88405C4
:1012C000016831F480310160016831F480210160EE
:1012D000606800280ED000F0D5FD0500DFF8640539
:1012E0000068800315D400F0CDFD401B6528F5D3C0
:1012F000032079E100F0C6FD0500DFF8480500682D
:10130000800306D500F0BEFD401B6528F5D3032001
:101310006AE12078800750D5DFF82C05016811F0CC
:101320000C0F07D0016811F00C01082914D10068D6
:10133000C00311D4DFF80C050168890704D52169C1
:10134000012901D001204FE1016831F0F801626903
:1013500051EAC201016030E0206900281AD0012062
:10136000DFF8F414086000F08DFD0500DFF8D40408
:101370000168890706D400F085FD401B0328F5D3DA
:10138000032031E1016831F0F801626951EAC201DC
:10139000016012E00020DFF8C014086000F072FD68
:1013A0000500DFF8A0040068800706D500F06AFD9C
:1013B000401B0328F5D3032016E1207800072CD525
:1013C000A069002816D00120DFF89014086000F012
:1013D00059FD0500DFF87C040068800706D400F0A2
:1013E00051FD401B0328F5D30320FDE0012000F050
:1013F00016FA12E00020DFF86414086000F042FDE5
:101400000500DFF850040068800706D500F03AFDBB
:10141000401B0328F5D30320E6E02078400740F185
:1014200088800026DFF838743868C0000AD438682D
:1014300050F080503860386810F08050009000986C
:1014400001200600DFF81C84D8F80000C00513D482
:10145000D8F8000050F48070C8F8000000F012FDC9
:101460000500D8F80000C00506D400F00BFD401BB5
:101470006528F6D30320B7E0E068012806D1DFF83D
:10148000E803016851F00101016025E0E0680028EF
:101490000AD1DFF8D40301684908490001600168F6
:1014A00031F00401016017E0E06805280AD1DFF897
:1014B000B803016851F004010160016851F00101B5
:1014C000016009E0DFF8A0030168490849000160F4
:1014D000016831F004010160E068002810D000F0DC
:1014E000D1FC0500DFF880030068800719D400F004
:1014F000C9FC401B41F289318842F3D3032073E0D9
:1015000000F0C0FC0500DFF860030068800708D524
:1015100000F0B8FC401B41F289318842F3D303202C
:1015200062E03000C0B2012803D1386830F080504A
:101530003860E069002856D0DFF80C73386810F086
:101540000C0008284DD0E069022837D1DFF81C9341
:101550000020C9F8000000F095FC0600DFF8E482E6
:10156000D8F80000800106D500F08CFC801B032811
:10157000F4D3032038E0206AB0F5803F05D1396804
:1015800031F40031A06801433960396831F47411D5
:10159000206A0143606A014339600120C9F80000F4
:1015A00000F070FC0500D8F8000080011BD400F0AA
:1015B00069FC401B0328F6D3032015E00020DFF868
:1015C000AC12086000F05EFC0500DFF878020068ED
:1015D000800108D500F056FC401B0328F5D30320FA
:1015E00002E0012000E00020BDE8F2832DE9F04197
:1015F00004000D000026DFF87872386810F007004C
:10160000A8420BD23868C008C00028433860386848
:1016100010F00700A84201D00120ADE0207880073B
:1016200019D52078400705D5DFF81C02016851F470
:10163000E06101602078000705D5DFF80C02016841
:1016400051F460510160DFF800120A6832F0F002D4
:10165000A06802430A602078C00758D56068012856
:1016600006D1DFF8E0010068800311D4012083E097
:101670006068022806D1DFF8CC010068800107D439
:10168000012079E06F480068800701D4012073E0F1
:10169000DFF8B481D8F80010890889006068014338
:1016A000C8F8001000F0EEFB0600606801280ED1BB
:1016B000D8F8000010F00C00042828D000F0E2FB5D
:1016C000801B41F289318842F2D3032054E06068E4
:1016D00002280ED1D8F8000010F00C00082816D00F
:1016E00000F0D0FB801B41F289318842F2D3032005
:1016F00042E0D8F8000010F00C0F08D000F0C2FB58
:10170000801B41F289318842F3D3032034E03868EA
:1017100010F0070085420BD23868C008C00028438B
:101720003860386810F00700A84201D0012023E09B
:101730002078400706D544490A6832F4E062E06840
:1017400002430A602078000707D53F48016831F45A
:101750006051226951EAC201016000F00FF8454969
:10176000394A1268C2F30312895CC84038490860DC
:10177000002000F08DFB0020BDE8F081F0B585B0C1
:1017800001A83D49102200F039FB3C480088ADF823
:101790000000002000210022002300252A4E34688A
:1017A00014F00C07042F02D0082F02D01BE02748AA
:1017B0001AE001A8C4F38347C05D0300E0030CD521
:1017C00068463668C6F34046805D01001F4800FB4E
:1017D00003F0B0FBF1F0020003E0294800FB03F046
:1017E0000200100000E0194805B0F0BD184800687C
:1017F000704780B5FFF7FAFF2249134A1268C2F317
:101800000222895CC84002BD80B5FFF7EFFF1D4989
:101810000D4A1268C2F3C222895CC84002BD81B081
:101820000B490968C9084FF47A72B1FBF2F101FB68
:1018300000F1009100BF00994A1E00920029F9D1E1
:1018400001B07047001002400410024000127A00FC
:101850000400002024100240000042428004424262
:101860001C10024000700040201002406000424204
:101870000020024084200008742000088E18000810
:1018800000093D00BC200008002200F027BB010237
:101890002DE9F84702000B00002500260021002753
:1018A0005FF000085FF0000EBEF1100F80F00D81B8
:1018B000012010FA0EF00500186828400600AE421C
:1018C00040F000815868002831D0012820D002283B
:1018D00025D003283CD011281DD0122823D0DFF8B2
:1018E000F0C1604523D0DFF8ECC160451FD0DFF8C0
:1018F000E8C160451BD0DFF8E4C1604517D0DFF8D0
:10190000E0C1604513D0DFF8DCC160450FD022E0B4
:10191000D86807001FE0D868001D07001BE0D868E2
:101920000830070017E0D8680C30070013E098680B
:10193000002802D10420070009E09868012803D19B
:1019400008200700156102E008200700556102E049
:1019500000200700FFE7B6F5807F01D2140000E009
:10196000141DB6F5807F02D25FEA8E0803E0BEF157
:1019700008085FEA88085FF00F09D4F800C019FA78
:1019800008F03CEA000C17FA08F050EA0C0CC4F816
:1019900000C05868C00040F195805348D0F800C09E
:1019A0005CF0010CC0F800C0006810F0010000906D
:1019B0000098DFF838C1704680085CF820A01EF05F
:1019C0000300C0B2800019FA00F93AEA090A48484F
:1019D000824202D15FF000091FE04648824202D1F4
:1019E0005FF0010919E04448824202D15FF0020928
:1019F00013E04248824202D15FF003090DE0404803
:101A0000824202D15FF0040907E03E48824202D1DF
:101A10005FF0050901E05FF006091EF00300C0B2A7
:101A2000800019FA00F9514659EA01017046800810
:101A30004CF820105868C00307D53348D0F800C0D0
:101A400056EA0C0CC0F800C006E02F48D0F800C0E1
:101A50003CEA060CC0F800C05868800307D52B4844
:101A6000D0F800C056EA0C0CC0F800C006E02748C9
:101A7000D0F800C03CEA060CC0F800C05868C002AC
:101A800007D52348D0F800C056EA0C0CC0F800C0B7
:101A900006E01F48D0F800C03CEA060CC0F800C0C1
:101AA0005868800207D51B48D0F800C056EA0C0CD5
:101AB000C0F800C006E01748D0F800C03CEA060CA9
:101AC000C0F800C01EF1010EEEE6BDE8F18700008F
:101AD0000000111000001210000021100000221060
:101AE00000003110000032101810024008000140C0
:101AF00000080140000C01400010014000140140AA
:101B000000180140001C0140000401400404014091
:101B1000080401400C04014038B500F0F9F900F068
:101B20001DF800F08AF800F06CF800F049F8494C14
:101B3000402249492000FEF781FB484D28780128C2
:101B400008D14748028847492000FEF72CFB0020B7
:101B50002870F2E70A2000F0EDF9EEE700B58FB04B
:101B600005A82821FFF790FE68461421FFF78CFE98
:101B7000022005900120099010200A9002200C906C
:101B800000200D905FF4E0100E9005A8FFF74EFBCB
:101B9000002801D000F06EF80F2000900220019084
:101BA000002002900020039000200490012168464C
:101BB000FFF71CFD002801D000F05CF80FB000BD5D
:101BC00010B5244C284820605FF4E13060600020AC
:101BD000A0600020E060002020610C2060610020F7
:101BE000A0610020E0612000FEF7A2FA002801D0E9
:101BF00000F040F82068C06850F010002168C8600C
:101C000010BD80B51948016851F0010101600068FC
:101C100010F001000090009800220021102000F038
:101C20009EF8102000F0B0F800220021112000F0F2
:101C300096F8112000F0A8F801BD81B00C480168A9
:101C400051F004010160006810F004000090009859
:101C500001B0704794020020D4020020220300202B
:101C6000200300200C00002000440040141002401B
:101C7000181002407047000010B410F00703494CE0
:101C800022684FF6FF010A40474951EA03210A43FF
:101C9000226010BC704743480068C0F302207047C0
:101CA000012210F01F018A40404903005BB25B092A
:101CB00041F82320704710B4020052B2002A09D51F
:101CC0000A013B4B040064B214F00F04234403F8F0
:101CD000042C04E00A01374B040064B21A5510BC0E
:101CE000704770B4030013F00704D4F1070005280F
:101CF00001D3042001E0D4F10700251D072D01D2F6
:101D0000002500E0E51E012616FA00F0401E014005
:101D1000A94016FA05F56D1E2A401143080070BC53
:101D2000704710B50400601EB0F1807F01D3012020
:101D30000EE0601E204908600F215FF0FF30FFF7C2
:101D4000BAFF00201D49086007201D4908600020D7
:101D500010BD10B504002000FFF78EFF10BD2DE967
:101D6000F04104000D0016000027FFF794FF8046A5
:101D7000320029004046FFF7B4FF0100200040B2C6
:101D8000FFF799FFBDE8F08110B50400200040B2D4
:101D9000FFF786FF10BD10B504002000FFF7C1FF5C
:101DA00010BD00000CED00E00000FA0500E100E0CD
:101DB00018ED00E000E400E014E000E018E000E0CE
:101DC00010E000E003490A680348007882180A60BE
:101DD000704700BF140300200800002062B38B0787
:101DE00008D0521E11F8013B00F8013B00F024809E
:101DF0008B07F6D1830740F0208000BF103A07D34D
:101E000030B4B1E83810103AA0E83810F9D230BC3C
:101E1000530724BFB1E80810A0E8081044BF51F8E8
:101E2000043B40F8043BD20724BF31F8022B20F8D2
:101E3000022B44BF0B7803707047121F17D35B004F
:101E400009D151F8043B20F8023B1B0C121F20F86B
:101E5000023BF6D20BE051F8043B00F8013B1B0AB1
:101E600020F8023B1B0C121F00F8013BF3D238BFD5
:101E7000121D521E24BF11F8013B00F8013BF8D897
:101E80007047000001480068704700BF140300203D
:101E900010B504004FF47A700D490978B0FBF1F0E9
:101EA0000C490968B1FBF0F0FFF775FF002801D07D
:101EB00001200CE0102C09D2002221005FF0FF303D
:101EC000FFF74DFF04480460002000E0012010BD32
:101ED00008000020040000200000002000B500BF22
:101EE000130096469446103928BFA0E80C50FAD843
:101EF0005FEA417C28BF0CC048BF40F8042BC907EB
:101F000028BF20F8022B48BF00F8012B00BD0000BD
:101F100080B50748016851F0100101600320FFF708
:101F200018FF0020FFF7B4FFFEF78CFC002002BD75
:101F30000020024070B50400FFF7A4FF0500260052
:101F400016F1010F02D0044800788619FFF79AFFB6
:101F5000401BB042FAD370BD080000200F4908684A
:101F600050F0010008600E4A13680E4803401360E9
:101F70000B680D4803400B60086830F4802008604F
:101F8000106830F4FE0010605FF41F00074908601D
:101F90005FF00060064908607047000000100240D2
:101FA000041002400000FFF8FFFFF6FE0810024098
:101FB00008ED00E030B450F8041B79B102684368C2
:101FC00002440830DC0744BFA9F10104E31852F8C9
:101FD000045B43F8045B091FF9D1ECE730BC7047A0
:101FE00010B5074979441831064C7C44163404E096
:101FF0000A68081D114488470146A142F8D110BD66
:1020000008000000280000005BF0FFFF180300003C
:102010000C000020000000009DFFFFFF0C000000EE
:1020200090000000000000200000000000F00DF80B
:10203000002801D0FFF7D4FFAFF300800020AFF3FA
:102040000080FFF769FD00F002F80120704700F002
:1020500001B800000746384600F002F8FBE7000030
:1020600080B5AFF30080024A11001820ABBEFBE739
:102070002600020002030405060708090A0B0C0DDE
:102080000E0F101000000000000000000102030409
:102090000607080901488047014800475D1F0008FE
:1020A000A5200008AFF30080AFF30080FFF7BEFF6C
:1020B0001000000000A24A0401000000000000001F
:1020C00001020304FFF7FEBFFFF7FEBFFFF7FEBFED
:1020D000FFF7FEBFFFF7FEBFFFF7FEBFFFF7FEBF34
:1020E000FFF7FEBFFFF7FEBFFFF7FEBFFFF7FEBF24
:1020F000FFF7FEBFFFF7FEBFFFF7FEBFFFF7FEBF14
:10210000FFF7FEBFFFF7FEBFFFF7FEBFFFF7FEBF03
:10211000FFF7FEBFFFF7FEBFFFF7FEBFFFF7FEBFF3
:10212000FFF7FEBFFFF7FEBFFFF7FEBFFFF7FEBFE3
:10213000FFF7FEBFFFF7FEBFFFF7FEBFFFF7FEBFD3
:10214000FFF7FEBFFFF7FEBFFFF7FEBFFFF7FEBFC3
:10215000FFF7FEBFFFF7FEBFFFF7FEBFFFF7FEBFB3
:10216000FFF7FEBFFFF7FEBFFFF7FEBFFFF7FEBFA3
:10217000FFF7FEBFFFF7FEBFFFF7FEBFFFF7FEBF93
:10218000FFF7FEBFFFF7FEBFFFF7FEBFFFF7FEBF83
:10219000FFF7FEBFFFF7FEBFFFF7FEBFFFF7FEBF73
:0821A000FFF7FEBFFFF7FEBFD1
:04000005080020A52A
:00000001FF
